:020000041FFFDC
:10000000F8FF00201104FF1F6D38FF1F6D38FF1F20
:100010006D38FF1F6D38FF1F6D38FF1F6D38FF1FD4
:100020006D38FF1F6D38FF1F6D38FF1F6D38FF1FC4
:100030006D38FF1F6D38FF1F6D38FF1F6D38FF1FB4
:100040006D38FF1F6D38FF1F6D38FF1F6D38FF1FA4
:10040000FFFFFFFFFFFFFFFFFFFFFFFFFEFFFFFFFD
:1004100062B603F0DDFEFEE72DE9F04FA5B08046A1
:1004200015461E460FF2D850D0E90023CDE912231D
:10043000049104AF0020786214AC6FF0004900E032
:1004400055440020ADF8020012AB4FF0FF322946B0
:100450000DF1020001F035F88246BAF1010F08DA19
:100460002878B0F1010A6AEB0A0A6FEA0A004FEA3B
:10047000D07ABDF8020025280CBFAAF1010353462B
:10048000012B07DB2A4602A9404600F0F5FF0028B1
:1004900000F1EB80BDF80200252807D10020F860AC
:1004A00038617861B861F861386205E00028C7D129
:1004B000786ADCE040F0010015F8011F2029F9D02E
:1004C00023290ED02B2904D02D2906D030290CD079
:1004D0000FE040F0020080B2EEE740F0040080B28E
:1004E000EAE740F0080080B2E6E740F0100080B292
:1004F000E2E72A290DD131680A1D32600968F962E4
:10050000002904D54942F96240F0040080B26D1C14
:1005100011E00021F96209E0F96A494505D001EBD3
:10052000810302EB43013039F9626D1C2A78A2F194
:1005300030010A29F0D329782E291CBF4FF0FF3152
:10054000B9621CD115F8011F2A2906D131680A1D8C
:1005500032600968B9626D1C11E00021B96209E0DE
:10056000B96A494505D001EB810302EB43013039FB
:10057000B9626D1C2A78A2F130010A29F0D33886BD
:1005800029780FF2844000F0BDFF08B115F8010B87
:100590008DF842009DF84200682804D12878682828
:1005A0000AD1622005E06C2804BF28786C2803D1AA
:1005B00071208DF842006D1C14A8B8602A7810468E
:1005C000253828D01C3800F08B80001F022840F20C
:1005D0008780133800F0B080093800F08180801ED9
:1005E00000F04A81401E00F0F080401E022877D9BA
:1005F000001F00F0EA80401F47D0401E00F09C80A2
:10060000401E37D0C01E0CD0801E00F09580C01E4A
:1006100000F0928051E1F868411CF96025210155F4
:1006200055E19DF842006C28306814D0011D3160FE
:1006300000687860BA6A002A03D500F06FFF38615D
:1006400045E1002100F086FF00281ABF7968401AB2
:10065000B86A38613BE1011D3160026802A9404679
:1006600000F0D6F9002840F132814FF0FF3025B07C
:10067000BDE8F08F3068011D316000680021CDE9D0
:10068000020114A878607821F2E09DF84200622807
:1006900018D0682806D06A280BD06C2819D0712889
:1006A00007D016E03068011D3160796A006801806A
:1006B0000DE13268101D3060786AC1171268C2E916
:1006C000000104E13068011D3160796A0068017041
:1006D000FDE03068011D3160796A00680160F6E074
:1006E0003068C01D20F007003060034603F10800A9
:1006F0003060D3E90001CDE90201002904D5F86892
:10070000411CF9602D210DE0388E810704D5F86871
:10071000411CF9602B2105E0C00704D5F868411C95
:10072000F96020210155F86814A940187860114635
:1007300002A800F06DFBCAE09DF842306C2B08BFA8
:10074000306811D0712B08BF306802D06A2B306836
:100750000AD1C01D20F00700306084460CF108006B
:100760003060DCE9000103E0011D31600068002118
:10077000CDE90201682B04BFDDE9020180B20BD094
:10078000622B04BFDDE90201C0B205D0742B18BF93
:100790007A2B04D1DDE902010021CDE9020197F8AD
:1007A000300000075FD5DDE90201002908BF0028FD
:1007B00059D042F02000782855D1F86830210155F1
:1007C000401C411CF96002554DE09DF84200622832
:1007D0000CD0682810D06A281AD06C2824D0712830
:1007E00016D0742820D07A280CD01DE03068011D66
:1007F000316090F900001BE03068011D3160B0F9F4
:10080000000015E03068011D31600068002110E033
:100810003068C01D20F007003060034603F1080077
:100820003060D3E9000104E03068011D31600068E8
:10083000C117CDE90201DDE90201002904DAF868F7
:10084000411CF9602D210DE0388E810704D5F86830
:10085000411CF9602B2105E0C00704D5F868411C54
:10086000F96020210155F86814A9401878601146F4
:1008700002A800F03AFA2AE09DF842006C2808D05D
:10088000F868411CF96031680A1D32600968015539
:100890001DE03068011D31600068ADF804000020E3
:1008A000ADF806004FF0FF30B86201AA02A9404639
:1008B00000F0AEF800280AD5D7E6F868411CF960C8
:1008C000252101551AB1F868411CF96002556D1CCB
:1008D000F86AF968401AB969401A3969401AF96921
:1008E000401A7969401A396AA0EB010A97F830007A
:1008F000400712D420208DF80000BAF1010F0CDB64
:10090000D346012300AA02A9404600F0B5FD002805
:100910007FF4ABAEBBF1010BF3D1FB6814AA02A9C3
:10092000404600F0A9FD00287FF49FAE30208DF8EE
:100930000000D7F818B0BBF1010F0BDB012300AAB0
:1009400002A9404600F098FD00287FF48EAEBBF16E
:10095000010BF3D13B697A6802A9404600F08CFD97
:1009600000287FF482AE30208DF80000D7F81CB04C
:10097000BBF1010F0BDB012300AA02A9404600F0E6
:100980007BFD00287FF471AEBBF1010BF3D17B69D5
:1009900038697968421802A9404600F06DFD0028C8
:1009A0007FF463AE30208DF80000D7F820B0BBF1A3
:1009B000010F0BDB012300AA02A9404600F05CFDF9
:1009C00000287FF452AEBBF1010BF3D197F8300051
:1009D00040077FF536AD20208DF80000BAF1010FF9
:1009E000FFF62FAD012300AA02A9404600F044FD06
:1009F00000287FF43AAEBAF1010AF3D121E50000F4
:100A00000000000000000000686A6C747A4C00006E
:100A10002DE9F04F95B083460F461446D7F830A025
:100A2000BAF1000F48BF6FF0004A00F0BFFD796BCC
:100A3000401801900FF67022D2E90001CDE90201C1
:100A400097F83800400702D40198412805D20DF1EB
:100A500010094020019000250AE000F0ADFD81461C
:100A6000B9F1000FF7D14FF0FF303BE1AAEB080AD4
:100A7000BAF1010FC0F2A98002AA21880DF101008C
:100A800000F0F8FD5FEA000800F1BF80208818B987
:100A9000B8F1010800F1B980C245C0F296807869CA
:100AA000019908EB0002914280F080807D63404212
:100AB000396A401AB969401A796A401AF969401AC4
:100AC000B96A451A97F83800400710D420208DF8ED
:100AD0000000012D0BDB2E46012300AA39465846A3
:100AE00000F0CAFC002840F09080761EF4D17B69AB
:100AF0004A463946584600F0BFFC002840F0858041
:100B000030208DF800003E6A012E09DB012300AA87
:100B10003946584600F0B0FC002876D1761EF5D153
:100B2000BB69FA683946584600F0A6FC00286CD12B
:100B300030208DF800007E6A012E09DB012300AA17
:100B40003946584600F098FC00285ED1761EF5D153
:100B5000FB69B869F96842183946584600F08CFCC0
:100B6000002852D130208DF80000BE6A012E09DB2A
:100B7000012300AA3946584600F07EFC002844D1E3
:100B8000761EF5D197F8380040070DD520208DF856
:100B90000000012D08DB012300AA3946584600F069
:100BA0006BFC90BB6D1EF6D100257D6142460DF1B8
:100BB00001017869484400F06BFD78694044786130
:100BC00034F8020B00287FF451AF786B7969401A32
:100BD000396A401AB969401A796A401AF969401AA3
:100BE000B96AA0EB010897F83800400712D420201A
:100BF0008DF80000B8F1010F0CDB4446012300AA78
:100C00003946584600F038FC10B14FF0FF3562E02D
:100C1000641EF3D17B694A463946584600F02CFCE5
:100C20000028F2D130208DF800003C6A012C09DB4D
:100C3000012300AA3946584600F01EFC0028E4D1E2
:100C4000641EF5D1BB69FA683946584600F014FCB9
:100C50000028DAD130208DF800007C6A012C09DBF5
:100C6000012300AA3946584600F006FC0028CCD1E2
:100C7000641EF5D1FB69B869F968421839465846CF
:100C800000F0FAFB0028C0D130208DF80000BC6ACB
:100C9000012C09DB012300AA3946584600F0ECFB81
:100CA0000028B2D1641EF5D197F83800400710D55E
:100CB00020208DF80000B8F1010F0ADB012300AA03
:100CC0003946584600F0D8FB00289ED1B8F10108FB
:100CD000F4D17D617D6304A881451CBF484600F0C6
:100CE00013FD284615B0BDE8F08F2DE9FA4B86B00C
:100CF00005462F696F2908BF082605D041F020005E
:100D0000782814BF0A2610263C24D5E90001814624
:100D10008B469DF81820642A18BF692A05D100293E
:100D200003DAD9F100096BEB4B0BBBF1000F08BFE5
:100D3000B9F1000F0CD1286B50B9082E44D195F8A9
:100D40003800000740D53B24302087F83B003BE0CB
:100D5000A4F101084446F017CDE90460484659461D
:100D6000DDE9042300F014FDCDE90201CDE9009B8B
:100D7000DDE90223DDE90401A0FB029BDDE90001BE
:100D8000A0EB09003030C0B23A2803D39DF8181008
:100D90005139081808F80700DDE9029BBBF1000F84
:100DA00008BFB9F1000F03D0E868E1198842CFD33A
:100DB000082E09D195F83800000705D5E05D3028E8
:100DC00002D0641E3020E055C4F13C00A861E11956
:100DD000E960296B884207DA081A2862288F4FF6E3
:100DE000EF710840288710E000290ED595F83810DB
:100DF00001F01401102908D1696B6A69891A2A6AFD
:100E0000891A0C1A012CA8BF2C6208B0BDE8F08B1F
:100E10002DE9F24F8EB0054604AFD5E90001CDE9CA
:100E200002019DF8380040F020008DF80000612894
:100E30000BD0286B002848BF062005D404BF9DF8BE
:100E40000000672801D1012028636968C1F30A50B6
:100E500040F2FF7398421CD1080304BF28680028A1
:100E600009D10320A8619DF8380061381A2837D3CA
:100E70000FF2486108E00320A8619DF8380061384E
:100E80001A282AD30FF22C610322E86800F000FC34
:100E9000BBE1010017D1284600F0F1FC012812DB6C
:100EA000002400209DF80010612920D1E96830223B
:100EB00001F8012B4A1CEA609DF83820612A0CBF1A
:100EC000782258220FE040F2FE316A6861F31E5228
:100ED0006A60441A4FF0FF30E4E70FF2D451D3E7D1
:100EE0000FF2D451D0E70A706969891C696110B9A1
:100EF0000026B0467FE19DF80000612840F0978011
:100F0000286B00284CBF2126461C36B2771CD5E939
:100F100000ABDDE902010022002300F0D3FC3ABF60
:100F20008BF00040CDE902A0CDE902ABA4F10408AA
:100F30008DF810200DF11109012F33DBDDE90201DD
:100F40000022002300F0D6FC2CD21C2102A800F0C5
:100F5000E9FCDDE9020100F073FD0446FF1F012FEB
:100F600009DB00F099FD02460B46DDE9020100F0C5
:100F7000ABFDCDE9020109F20700072104E004F00E
:100F80000F0200F8012D2411012C01DB491EF6D5BA
:100F9000491E5CBF002200F8012DF9D500F20709B7
:100FA000012FCBDA0DF11100A9EB00010DF11107B2
:100FB000B142B8BF0E4636B2002E31D43046884218
:100FC00006DA04A941184978082928BF0F2100D260
:100FD000002104AA821800E0761E401E12F8013992
:100FE0008B42F9D00F2904D104A941184A78521C28
:100FF0004A70002803D504AF761C08F1040836B205
:10100000701E0DD4C1190A783032D2B23A2A03D3F5
:101010009DF838303A3B9A1801F80129401EF2D564
:10102000286B002840F1E780701E2863E3E0DDE9CB
:1010300002010022002300F045FC05D2DDE9020197
:1010400081F00041CDE9020124B247F2975060439C
:101050006F4990FBF1F80FFA88F8C8F107040027F0
:10106000DFF8B091012C19DBDDE902ABE00707D511
:10107000504659463A464B4600F0E6FD82468B46BE
:101080006410384649463A464B4600F0DDFD0746B7
:101090008946002CEAD1CDE902AB21E064429246B8
:1010A000DFF874B114D0E00707D5504659463A46E8
:1010B0004B4600F0C9FD82468B46641038464946CF
:1010C0003A464B4600F0C0FD07468946002CEAD15F
:1010D000DDE9020152465B4600F088FECDE90201DF
:1010E0009DF8000066280CBF08F10A000620296B55
:1010F0004618142EA8BF132630208DF810000DF1CD
:101100001104464F012E33DBDDE9020100F0AEFC95
:1011100004F1080104220A24B0FBF4F303EB830E6C
:10112000A0EB4E00303001F8010DB3FBF4F000EB02
:101130008004A3EB4403303301F8013D521EEAD191
:1011400001F10804083E012EDCDBDDE9020100F0BC
:101150008DFC00F0ABFC02460B46DDE9020100F01D
:10116000B3FC00223B4600F06FFDCDE90201CBE766
:101170000DF11100201A0DF111079DF81110302901
:1011800006D1401EA8F1010817F8011F3029F8D038
:101190009DF80010662904BF0FFA88F808F10101D4
:1011A00003D065290CBF012100212A6B8E1836B2AD
:1011B000B042B8BF064636B2002E1CD4314681423A
:1011C00004DAC85D352828BF392000D23020CA197A
:1011D000521E00E0761E491E12F801398342F9D0F2
:1011E000392802D1C85D401CC855002903D57F1E8F
:1011F000761C08F101080FFA88F0009033B23A46E5
:101200009DF83810284600F00BF80FB0BDE8F08FBD
:10121000A0860100000024400000F03F84D79741E1
:101220002DE9F04786B006468A4690461C46BDF931
:10123000385000F01CFF406A90F80090376B012C8A
:1012400002DA01240FF278284AF02000662807D03D
:1012500067287AD16FF003018D427CDBBD427ADAD8
:101260006D1C66280AD096F83800000702D4BC42EC
:10127000B8BF27462DB27F1B48BF0027F068B16971
:101280002DB2012D21DA4A1C30230B54012F03DA31
:1012900096F83810090702D502F80090521CB26186
:1012A000EF42B8BF7D422DB269427162EF19A74289
:1012B000B8BF3C4624B2F46122464146B3691818CF
:1012C00000F0E6F9381BB062BFE00818AC4216DA4D
:1012D0002246414600F0DCF9B1696118B161281B72
:1012E0007062012F03DA96F83800000705D5F06820
:1012F00001F80090F069401CF061B762A5E02A4651
:10130000414600F0C5F9B0692818B061641B012F8F
:1013100003DA96F83810090704D5411CB161F16869
:1013200000F8019024B2A742B8BF3C4624B222463E
:1013300005EB0801B069F368C01800F0A9F9B069BD
:101340002018B061381B70627FE0BAF1610F14D1D0
:101350004FF0700A16E0BC4204DA96F8381009071C
:1013600058BF27467F1E48BF0027BAF1670F14BF3A
:101370004FF0450A4FF0650A04E0BAF1410F08BF8B
:101380004FF0500AB1694A1CF06818F8013B0B5441
:10139000012F03DA96F83810090702D502F80090F9
:1013A000521CB261012F10DB641E24B2A742B8BFE9
:1013B0003C4624B222464146B369181800F068F949
:1013C000B0692018B061381B7062B069F16800EB39
:1013D000010808F801AB002D5CBF2B2008F8010BB9
:1013E00003D52D2008F8010B6D42002402AF2DB269
:1013F000012D0EDB0A22294600A800F051FE0198BB
:1014000007F8010B009D641C2DB2012DF2DA022CAD
:1014100006DA4AF02000652804BF302008F8010BE6
:101420001CB9302008F8010B09E0012C07DB641E11
:1014300002A8205C303008F8010B012CF7DAB06903
:10144000F1684018A8EB0000F06196F8380000F051
:10145000140010280DD17069B1690818716A081854
:10146000F1690818B16A0818716B8842BCBF081A84
:10147000306206B0BDE8F087F8B504460D46164662
:101480001F46002077B116F8011BA868A047A86086
:1014900030B1E86A401CE86200207F1EF3D1F2BD43
:1014A0004FF0FF30F2BD000000000000000000001F
:1014B0006E616E004E414E00696E6600494E4600F8
:1014C0003000F8B504460D4616461F4600F0F0FD04
:1014D0003B4632462946204601B0BDE8F04000F0C8
:1014E000FFBD50F8041B61B150F8042BD30744BF73
:1014F000A9F101039A18002342F8043B091FFAD10D
:10150000EFE770470278C9B28A421AB11CBF10F8DF
:10151000012FF9E718BF00207047000000F1010318
:10152000810704D010F8011B89B18107FAD1026844
:10153000B2F10131914311F0803F04BF50F8042F04
:10154000F6E710F8011B11B110F8011BFBE7C01AF8
:1015500070470000C9B2830706D0521E22D310F88C
:10156000013B9942F7D11FE0083A13D302F104027C
:1015700041EA012141EA014150F8043B121F21BF19
:101580004B40A3F1013C2CEA030C1CF0803FF3D04C
:10159000C9B2001F083210F8013B521E28BF91EA61
:1015A000030FF8D818BF0120401E704780B500F027
:1015B0007FFD012002BD000070B5054605F10F005A
:1015C000C408E400012000F0E5FDA5422BD2082C60
:1015D00004D2082402E0083000F096F8244D286870
:1015E00001000CD1291D0868B8B10268A24238BFB9
:1015F000011DF8D316E01368A34213D2111D0A6827
:10160000002AF8D10068291D00E0111D0A688242F5
:1016100003D01368A342F8D304E000F00BFE0028C7
:10162000D9D1002121B9012000F0F8FD002070BDC2
:101630000E683068A0F10802A2423CBF70680860E2
:1016400007D3A2190A6073685360001B0A68106010
:101650003460086800281DBF41680029001D002073
:101660002860012000F0DAFD06F1080070BD0000DE
:101670009453FF1F70B504460D46164600F018FD42
:10168000324629462046BDE8704000F01BBD0000F0
:1016900062B38B0708D0521E11F8013B00F8013BE2
:1016A00000F024808B07F6D1830740F0208000BF34
:1016B000103A07D330B4B1E83810103AA0E8381027
:1016C000F9D230BC530724BFB1E80810A0E80810D5
:1016D00044BF51F8043B40F8043BD20724BF31F823
:1016E000022B20F8022B44BF0B7803707047083A96
:1016F00007D3B1E80810083A40F8043B40F804CB9F
:10170000F7D25307E4E7000000B9704710B5A0F125
:1017100008042068082837D310F0070034D10120CE
:1017200000F038FD1948416809B18C4203D261606C
:10173000446017E019464B680BB1A342FAD30A681C
:1017400053189C421BD3A34204D123689A180A6001
:101750000C4607E04A681AB123681B199A420ED357
:1017600062604C60616851B1226813198B4206D1E6
:1017700000230360086880182060486860600120CA
:10178000BDE8104000F04ABD10BD00009453FF1F9B
:101790001B4213D1094236D12AB18446B0FBF2F084
:1017A00002FB10C2704700F059BDFCD30022002399
:1017B00070470B000200002100207047904271EB3F
:1017C000030CF6D370B5B1FA81F4B3FA83F52C1B90
:1017D000A340C4F1200532FA05F63343A2405FF07E
:1017E0000046E64002E05B085FEA3202841A71EBD1
:1017F000030524BF204629467641F4D302000B009E
:101800003000002170BD012ACFD970B5140C20D052
:10181000B1FA81F4B2FA82F5C4F120046419B4F18A
:101820002006D6D3B2405FF00044F440002502E029
:1018300052085FEA3303C61A71EB020E24BF30462A
:10184000714664416D41F3D302000B002000290072
:1018500070BD0C46B1FBF2F102FB11452D0445EAC7
:101860001045B5FBF2F402FB145580B240EA054581
:10187000B5FBF2F002FB105240EA044070BD30B4F8
:10188000416801F00042012143681B031B0B4360C8
:1018900004BF0368002B0ED003684468DD0F45EADF
:1018A000440444605B000360491EE302F4D54368CE
:1018B0001B031B0B436043681A434260084630BC5D
:1018C000704700004FF4001C1CEB410F94BF1CEB51
:1018D000430F09E041EA030C50EA4C0C52EA0C0CAD
:1018E00003D2994208BF9042704714BF8B42824294
:1018F000704700004FF4001C1CEB410F94BF1CEB21
:10190000430F09E041EA030C50EA4C0C52EA0C0C7C
:1019100003D28B4208BF8242704714BF9942904263
:101920007047000070B504460D466068C0F30A5069
:1019300040F2FF72904207D16068000304BF206844
:10194000002818D0022070BD010004D12046FFF706
:1019500096FF012867DA012D0FDB40F2FF71091AAB
:101960008D420AD36068002847BF00202F4900201D
:101970002F49C4E90001012070BD4142A9426168BC
:1019800006DA2C4A1140401941EA0050606053E0E9
:1019900001F0004162681203120B42F4801262608F
:1019A000401E451905F13500352803D3616000203C
:1019B000206070BD002215F11F0F05DA2035226866
:1019C0006068206000206060684213D0521E92411F
:1019D000D243C0F1200325689D4055EAD2722568A4
:1019E000C540666806FA03F32B432360636823FA55
:1019F00000F06060606808436060B2F1004F03D897
:101A00000BD12078C00708D52068401C20602068D2
:101A100018B96068401C60600EE06068884204BFCE
:101A200020680028F8D1002070BD00000000F0FF01
:101A30000000F07FFFFF0F804FF0FF3070BD00000F
:101A4000F446400D40EAC120490006D200F014F8E7
:101A5000004248BF6FF00040604700F00DF84FF0C3
:101A6000004188428CBF084640426047400D40EA32
:101A7000C120490080F00D8040F00040490DA1F5E3
:101A80008061491C05D4D1F11F0154BFC840C01763
:101A900070474FF000007047010040F10980F446A4
:101AA000404200F005F851F000416047010000BFDE
:101AB00009D0B0FA80F18840C91CC1F584610905DC
:101AC00001EBD0214005704770B44FF0004591EA1A
:101AD000030F44BF6B4000F0C3BB00BF841A71EB1F
:101AE000030604D26E40001BB141121973414FF43A
:101AF000001C1CEB410F34BF7CEB430684E00C0D53
:101B0000A4EB1356362E7DDC012E43DC45EAC323BD
:101B100043EA525312BFD20292025B08240545EAFF
:101B2000C12141EA5051D2EBC020994125D407D1BF
:101B3000B0FA80F610FA06F164D00020203608E0F2
:101B4000B1FA81F6B140C6F1200220FA02F2114347
:101B5000B0404FEAF474B4EB465434F001064FEA57
:101B600074040AD8D6F50016760D04F00044F0404F
:101B700061FA06F25040F1404840C00A40EA415044
:101B800021F0004128BF5FEA500550F1000044EB0E
:101B9000D12137E045EAC323DB0A45EAC121C90A5E
:101BA000B6F120050EDD42EA0242120CC5F1200614
:101BB00003FA06F6EB4042EA06056D42984161F1F0
:101BC00000010DE062FA06F5F240554063FA06FCAA
:101BD00082EA0C02F3405A406D42904161EB0301EE
:101BE00011F4801F05D1641E620502D06D004041D2
:101BF000494121F48011430875F1004350F1000080
:101C000041EB045170BC70471CEB410F15D223F01F
:101C1000004352EA43060BD04FEA4C0CBCEB410F99
:101C200004D80C0D661E342EB7DDEBE7801A9941FF
:101C300050EA410608BF0021E4E708BF1CEB430F50
:101C400028BF6FF00001DDE7B0B581EA030C0CF0AE
:101C5000004C40F2FF7515EA11541DBF15EA1357E9
:101C6000AC42AF4239E0E41923EA455343F4801310
:101C7000C90241F0004141EA505EC7021100A7FBD2
:101C8000020200284FF00000EEFB01204FF000019F
:101C9000E3FB072118BF42F001024018002149412F
:101CA000E3FB0E01A4F580640F0302D25200404111
:101CB000494154F101046CDD470872F1004250F1D2
:101CC000000051EB0451A1F580115CBF41EA0C0109
:101CD000B0BD4CEA05510020B0BD05EA1357AC4237
:101CE00014BFAF4241E050EA410E1CBF52EA430E1E
:101CF00002E061460020B0BD24423C441BD15FEAB3
:101D0000070EF6D0090302BF01460020AEF1140E03
:101D1000B1FA81F7AEEB070401FA07FE0C37C7F101
:101D2000200100FA07F7C8404EEA000E23EA4553A7
:101D300043F48013A2E733F00043B3FA83F704BF00
:101D4000B2FA82FE77440B3FE41BB7F1200E2FBF9F
:101D500002FA0EF3BB40C7F1200E22FA0EFE38BF86
:101D600043EA0E03BA40641C82E750EA410E14BFF6
:101D700052EA430E6FF000014FF4001717EB430FC8
:101D80008ABF194617EB410FB5E74CEA0551002011
:101D9000B0BDD4F10104B4F120070FDAC4F120077B
:101DA000520828BF42F0010210FA07F501FA07F7BE
:101DB000E1BF2A43E0403843E1400FE0352C98DC96
:101DC000C7F1200452EA400220FA07F218BF42F09D
:101DD000010231FA07F0A1400A43002172F10042EA
:101DE00050F1000051EB0C01B0BD0000F0B540F225
:101DF000FF7581EA030C0CF0004C15EA11541DBF6D
:101E000015EA1357AC42AF42E5E0BC41C1F3130100
:101E1000C3F31303801A994143F4801304D2641E60
:101E20004000494180185941C90241EA5051B1FB73
:101E3000F3F603FB1611A2FB0675D7EBC020A941F0
:101E400002D2761E80185941C90241EA5051B1FBB5
:101E5000F3FE03FB1E11A2FB0E75D7EBC020A941B8
:101E600003D2AEF1010E80185941890241EA905126
:101E7000760546EA8E2EB1FBF3F603FB1611A2FBA4
:101E80000675D7EB8020A94102D2761E80185941F1
:101E9000C90241EA50514EEA060EB1FBF3F603FBCC
:101EA0001611A2FB0675D7EBC020A94102D2761EFF
:101EB00080185941C90241EA5051B1FBF3F703FBC5
:101EC0001711A2FB0735D3EBC020A94167F100072A
:101ED0000CBF004247F0010766F3D5274FEA1E31D9
:101EE000B80814F5806412DDBD0775F1004250EBAF
:101EF0000E5051EB045111F5801F5CBF41EA0C01FB
:101F0000F0BD4CF07F6141F0E0410020F0BDBD0725
:101F10006D0840EA0E5041F48011D4F10104B4F18F
:101F200020060ADAC4F120060200E04001FA06F3B6
:101F3000E1401843B24015430EE0342C13DCC6F1E7
:101F4000200445EA40056D0820FA06F2154321FAFF
:101F500006F0A1400D43002175F1004250F1000050
:101F600051EB0C01F0BD00205FEA0C01F0BDCFB9D0
:101F700092185B41B3FA83F704BFB2FA82F6BF1935
:101F80000B3FB7F120062FBF02FA06F3BB40C7F1A3
:101F9000200622FA06F638BF3343BA401CB1E419D2
:101FA000641E33E77F4231F00041B1FA81F404BF8F
:101FB000B0FA80F6A4190B3CB4F120062FBF00FA4A
:101FC00006F1A140C4F1200620FA06F638BF3143DD
:101FD000A0403C1B1AE7AC421ABF05EA1357AF42B8
:101FE00012E050EA41061CBF52EA4306BFE750EA3E
:101FF0004107304661461CBF41EA0551F0BD52EA37
:10200000430C08BFC143F0BD00204FF4001616EB8F
:10201000410F98BF16EB430F08BF16EB410F24BFCB
:10202000C14305E016EB430F0CBF61464CEA055176
:10203000F0BD000080B5134800F07CF90FF24801B4
:10204000016041608160C1600161416181610FF2A5
:102050003C0242628162C162016341630FF230025D
:1020600082630FF23402C2630164416401BD10B5A2
:10207000044800F05FF90446206808B9FFF7DAFF6A
:10208000204610BD385CFF1F000000002E0000003D
:1020900066616C7365000000747275650000000075
:1020A00091FBF2F303FB1211C0E90031704700000D
:1020B00080B5DFF80C0000F03DF9806902BD00003A
:1020C000905CFF1F30B438B90FF24400D0E90045EE
:1020D000C2E90045002001E00170012030BC7047DA
:1020E00030B439B90FF23000D0E90045C3E90045FA
:1020F00000200BE012B96FF0010007E008B10A7888
:1021000002800978481E8041C043C00F30BC704730
:1021100000000000000000000000000000000000BF
:1021200010B5434C2068A0B3201D00F005F904F160
:10213000080000F001F904F10C0000F0FDF804F1D2
:10214000100000F0F9F804F1140000F0F5F804F1C3
:10215000180000F0F1F804F11C0000F0EDF804F1B3
:10216000200000F0E9F804F1240000F0E7F804F1A1
:10217000280000F0E3F804F12C0000F0DFF804F18F
:10218000300000F0DBF804F13400BDE8104000F04E
:10219000D5B810BD38B50446254D286890BB281D1C
:1021A00000F0C9F805F1080000F0C5F805F10C00D1
:1021B00000F0C1F805F1100000F0BDF805F11400C1
:1021C00000F0B9F805F1180000F0B5F805F11C00B1
:1021D00000F0B1F805F1200000F0ADF805F12400A1
:1021E00000F0ABF805F1280000F0A7F805F12C008D
:1021F00000F0A3F805F1300000F09FF805F134007D
:1022000000F09BF801202860052C06D205EB840025
:102210002430BDE8324000F092B831BD052805D227
:10222000034901EB8000243000F08AB870470000B9
:10223000A053FF1F0649086808B1002070470548F1
:1022400008600549C908C900091A0160704700BF44
:102250009C53FF1F3854FF1F385CFF1F704700005E
:10226000841A71EB030603D2001BB14112197341AA
:102270004FF4001C1CEB410F34BF7CEB430443E0E4
:102280000C0DA4EB1356352E50DC45EAC323DB0AB4
:1022900045EAC121C912B6F120050DDD63FA05F644
:1022A000EB4086EA0305124218BF45F00105C0184D
:1022B00051F100010CD213E062FA06F5F2405540EC
:1022C000F3415A40B340F3405A408018594107D374
:1022D00049085FEA30005FEA350528BF45F001058F
:1022E00001F58011420875F1004250F1000041EB08
:1022F000045170BC4FF4001C1CEB410F38BF7047F9
:102300000020090D090570471CEB410F10D252EA5D
:1023100043060BD0BCEB410F05D80C0DAB43661E3A
:10232000342EB5DD02E0AB438018594170BC7047D4
:1023300070BC704770477047704770477047704770
:1023400070470000000000000000000000000000D6
:10235000000000000000000000000000000000007D
:1023600000004E6F6E4D61736B61626C6500000022
:1023700000486172644661756C74000000000000E2
:102380004D656D4D616E6167656D656E74000042EF
:1023900075734661756C7400000000000000557391
:1023A0006167654661756C74000000000000000004
:1023B000000000000000000000000000000000001D
:1023C000000000000000000000000000000000000D
:1023D00000000000000000000000000000000000FD
:1023E000000000000000000000535643616C6C00C8
:1023F000000000000000000044656275674D6F6ECC
:1024000069746F720000000000000000000000000E
:1024100000000000000050656E645356000000008C
:1024200000000000005379735469636B00000000E2
:1024300000000000444D413000000000000000009A
:10244000000000444D413100000000000000000089
:102450000000444D41320000000000000000000078
:1024600000444D4133000000000000000000000067
:10247000444D413400000000000000000000004412
:102480004D41350000000000000000000000444DF8
:1024900041360000000000000000000000444D41F3
:1024A000370000000000000000000000444D4138EB
:1024B0000000000000000000000000444D41390011
:1024C00000000000000000000000444D41313000D9
:1024D000000000000000000000444D4131310000C8
:1024E0000000000000000000444D413132000000B7
:1024F00000000000000000444D41313300000000A6
:10250000000000000000444D413134000000000094
:102510000000000000444D41313500000000000083
:1025200000000000444D415F4572726F7200000070
:102530000000004D434D00000000000000000000BE
:1025400000004654464C000000000000000000005F
:1025500000526561645F436F6C6C6973696F6E00F4
:102560004C56445F4C565700000000000000004CE1
:102570004C57000000000000000000000000576100
:10258000746368646F6700000000000000524E47EB
:10259000000000000000000000000000493243304D
:1025A000000000000000000000000049324331003C
:1025B00000000000000000000000535049300000FF
:1025C00000000000000000000053504931000000EE
:1025D00000000000000000005350493200000000DD
:1025E0000000000000000043414E305F4F525F4D3D
:1025F000425F6275660043414E305F4275735F4FC4
:10260000666600000043414E305F4572726F720093
:102610000000000043414E305F54785F5761726E96
:10262000696E6743414E305F52785F5761726E69E1
:102630006E6743414E305F57616B655F55700000B8
:1026400000526573657276656435310000000000E4
:102650005265736572766564353200000000004390
:10266000414E315F4F525F4D425F6275660043419C
:102670004E315F4275735F4F666600000043414E06
:10268000315F4572726F72000000000043414E31AD
:102690005F54785F5761726E696E6743414E315F78
:1026A00052785F5761726E696E6743414E315F5772
:1026B000616B655F557000000052657365727665E9
:1026C00064353900000000005265736572766564F8
:1026D0003630000000000055415254305F52585FC0
:1026E00054580000000055415254305F455252008A
:1026F000000000000055415254315F52585F545859
:102700000000000055415254315F45525200000014
:1027100000000055415254325F52585F5458000037
:10272000000055415254325F4552520000000000F3
:102730000055415254335F52585F54580000000016
:1027400055415254335F455252000000000000557D
:10275000415254345F52585F5458000000005541B4
:102760005254345F4552520000000000005541525F
:1027700054355F52585F5458000000005541525480
:10278000355F4552520000000000004144433000D4
:102790000000000000000000000041444331000040
:1027A000000000000000000000434D503000000019
:1027B0000000000000000000434D50310000000008
:1027C00000000000000000434D50320000000000F7
:1027D00000000000000046544D30000000000000E2
:1027E000000000000046544D3100000000000000D1
:1027F0000000000046544D320000000000000000C0
:10280000000000434D5400000000000000000000E4
:1028100000005254430000000000000000000000CF
:1028200000526573657276656438330000000000FD
:10283000504954300000000000000000000000502B
:102840004954310000000000000000000000504921
:102850005432000000000000000000000050495405
:10286000330000000000000000000000504442302F
:10287000000000000000000000000055534230003E
:102880000000000000000000000055534244434493
:10289000000000000000000000454E45545F313547
:1028A00038385F54696D6572454E45545F547261A6
:1028B0006E736D69740000454E45545F52656365E3
:1028C000697665000000454E45545F4572726F722F
:1028D00000000000004932533000000000000000FA
:1028E00000000000534448430000000000000000C6
:1028F00000000044414330000000000000000000E0
:1029000000004441433100000000000000000000CE
:102910000054534930000000000000000000000097
:102920004D43470000000000000000000000004C84
:102930005054696D6572000000000000000052658F
:1029400073657276656431303200000000504F527A
:10295000544100000000000000000000504F52549D
:102960004200000000000000000000504F5254439D
:1029700000000000000000000000504F52544400CE
:10298000000000000000000000504F5254450000BD
:1029900000000000000000005265736572766564F7
:1029A000313038000000005265736572766564311D
:1029B000303900000000526573657276656431310C
:1029C0003000000000526573657276656431313104
:1029D0000000000052657365727665643131320023
:1029E0000000005265736572766564313133000012
:1029F0000000526573657276656431313400000001
:102A000000526573657276656431313500000000EF
:102A1000526573657276656431313600000000528C
:102A20006573657276656431313700000000526568
:102A30007365727665643131380000000052657349
:102A400065727665643131390000000000F00F4096
:102A500040F00F4080F00F40C0F00F4000F10F40F9
:102A6000F0000A1D3000180032001801600018182C
:102A70006400181A6E00181F780013187D00131ACE
:102A80008200131C8C000E1296000E15A0000E186A
:102A9000AA000E1BB4000E1EC8000C1CE1000B1E89
:102AA000FA000A1F000109080090044000A0044039
:102AB00000B0044000C0044000D0044000A0064024
:102AC00000B0064000C0064000D0064000A00E4006
:102AD00000B00E40343536376A6E6B6C676D4E4F02
:102AE00024474C4A43000C002A000000244457535A
:102AF000510016000000000000000000000023004C
:102B00000000000002040101D853FF1F2854FF1FDA
:102B1000D853FF1FD853FF1FD853FF1FE950FF1F83
:102B2000D050FF1F00000000000000000000000067
:102B30000000000000000000000000000000000095
:102B40000000000010B582B0DFF874060400012018
:102B500000F0E3FC012808D100A9012000F0C1FC2D
:102B600021009DF9000000F051F813BD10B582B0AE
:102B7000DFF850060400012000F0CFFC012825D129
:102B800000A9032000F0ADFC9DF90000312802D01F
:102B900032280CD01AE094F90000002806D094F9ED
:102BA0000010012000F0ACFC641CF4E70EE0DFF83C
:102BB0001806040094F90000002806D094F90010CB
:102BC000012000F09DFC641CF4E7FFE713BD80B515
:102BD0004FF49641012000F078FBDFF8F0153F201C
:102BE00000F0DBFCDFF8E815432000F0D6FC032002
:102BF00000F09FFC012000F09CFCDFF8D80500F0FD
:102C0000E3FCDFF8D40500F0DFFCF6E738B504009C
:102C10000D00DFF8C8050088002809D0022839D047
:102C20001AD3042878D059D3052800F09680D2E032
:102C300064B2242C0FD12C706D1CDFF8A00501218B
:102C40000180DFF89C050470DFF898050088401CBF
:102C5000DFF890150880BEE02C706D1CDFF8800551
:102C600000786040DFF878150870DFF87805008894
:102C7000401CDFF870150880DFF86805008805281B
:102C800007D1DFF8580502210180DFF8580500213F
:102C90000180A0E02C706D1CDFF8440500786040D6
:102CA000DFF83C150870DFF83C050088401CDFF8B1
:102CB00034150880DFF82C05008802280DD1DFF8D4
:102CC0001C050321018064B2B4F10B00DFF8181574
:102CD0000880DFF81005002101807CE02C706D1C5D
:102CE000DFF8FC0400786040DFF8F4140870DFF8C7
:102CF000F4040088401CDFF8EC140880DFF8E404DA
:102D00000088032807D1DFF8D40404210180DFF80C
:102D1000D404002101805EE02C706D1CDFF8C0043B
:102D200000786040DFF8B8140870DFF8B804008855
:102D3000401CDFF8B0140880DFF8AC040088DFF82E
:102D4000A4140988884207D1DFF890040521018086
:102D5000DFF89004002101803DE02C70DFF8800452
:102D600090F9000064B2844230D1DFF854141AA004
:102D700000F02AFCDFF84804050005222900DFF8EE
:102D80006C0400F033FC05F2050502222900DFF88F
:102D9000600400F02BFCAD1C03222900DFF8540472
:102DA00000F024FC05F20305DFF83C04028829004A
:102DB000DFF8440400F01AFCDFF82C040088451901
:102DC000DFF838042978017000F008F8DFF80C0407
:102DD00000210180FFE731BD25730000E0B5DFF879
:102DE0000C14DFF81C0400F037FC002833D1DFF8A6
:102DF000140400F0E9FBDFF8000490F90010DFF89C
:102E0000080400F0E1FBDFF8F00390F90110DFF8AF
:102E1000FC0300F0D9FBDFF8E00390F90210DFF8C3
:102E2000F00300F0D1FBDFF8D00390F90310DFF8D6
:102E3000E40300F0C9FBDFF8C00390F90410DFF8E9
:102E4000D80300F0C1FBDFF8B00390F90510DFF8FC
:102E5000CC0300F0B9FBDFF89413DFF8C40300F0F3
:102E6000FBFB002859D1DFF8BC0300F0ADFBDFF815
:102E7000B80300F0A9FBDFF8800390F900000828F0
:102E800003D1DFF8A80300F09FFBDFF86C0390F993
:102E90000000002803D1DFF8980300F095FBDFF86D
:102EA000580390F907000090DFF84C0390F90630C2
:102EB000DFF8440390F90520DFF83C0390F9041093
:102EC000DFF8700300F080FBDFF86C0300F07CFBA0
:102ED000C94890F90B000090C74890F90A30C648DD
:102EE00090F90920C44890F90810DFF8500300F069
:102EF0006BFBDFF84C0300F067FBBF4890F90F0055
:102F00000090BD4890F90E30BB4890F90D20BA48AA
:102F100090F90C10C94800F057FBB449C94800F0BB
:102F20009BFB002827D1C84800F04EFBC74800F0A3
:102F30004BFBB049C64800F047FB0321012000F0DD
:102F4000DEF80100C34800F03FFB0221062000F03C
:102F5000D6F80100C04800F037FBC04800F034FB51
:102F6000A1480088811E89B2092000F00DF90100F6
:102F7000BB4800F029FB9D49BA4800F06DFB0028D2
:102F800040F08880B84800F01FFBAB4800F01CFB05
:102F9000994890F90000452802D1B44800F014FB8C
:102FA000954890F90000572802D1B14800F00CFB79
:102FB000914890F9040000908F4890F903308E48B2
:102FC00090F902208C4890F901109C4800F0FCFA1E
:102FD0009B4800F0F9FA884890F90500532802D17F
:102FE000A44800F0F1FA844890F905004E2802D177
:102FF000A14800F0E9FA804890F9090000907E4865
:1030000090F908307C4890F907207B4890F9061029
:103010008A4800F0D9FA02210A2000F070F8010075
:10302000964800F0D1FA02210C2000F068F8010067
:10303000934800F0C9FA02210E2000F060F8010068
:10304000904800F0C1FA6C4890F910108E4800F0DA
:10305000BBFA8E4800F0B8FA674890F911000128D1
:1030600002D18B4800F0B0FA634890F911000028B3
:1030700002D1884800F0A8FA5F4890F912108648FB
:1030800000F0A2FA0221132000F039F80100834871
:1030900000F09AFA5549824800F0DEFA00282DD156
:1030A000804800F091FA804800F08EFA524890F97A
:1030B0000000082802D15D4800F086FA4E4890F9D9
:1030C0000000002802D15A4800F07EFA4A4890F9E0
:1030D00006000290484890F905000190464890F992
:1030E00004000090444890F90330434890F90220CE
:1030F000414890F901106D4800F066FA07BD2DE9CE
:10310000F04104000D000026ADB22800FEF754FA8D
:103110000700A0461FFA88F8ADB215FA84F0804582
:1031200009DA1FFA88F8344818F8000038707F1C54
:1031300018F10108EEE7ADB26842C719ADB2280038
:10314000022802D003280BD01BE097F9010097F961
:1031500000104FF48072514341FA80F0060010E0F5
:1031600097F9020097F901104FF48072514341FA28
:1031700080F097F900105FF4803202FB0100060036
:10318000FFE73000BDE8F081F8B504000D00ADB2F6
:103190002800FEF711FA07002600B6B2ADB215FA04
:1031A00084F0864206DAB6B21348305C38707F1C71
:1031B000761CF2E7ADB26842C7193800F2BD0000D4
:1031C000B452FF1F8850FF1F9450FF1F452BFF1F55
:1031D0006D2BFF1FEC46FF1FB444FF1F2A54FF1F37
:1031E0003054FF1F2C54FF1F2854FF1F1853FF1F7C
:1031F0002E54FF1F2053FF1F2453FF1F3154FF1F66
:103200004C48FF1FAC43FF1FA447FF1FB047FF1FE1
:10321000BC47FF1FC847FF1FD447FF1FE047FF1FE2
:103220005448FF1FD843FF1FEC47FF1F1447FF1FE1
:10323000F847FF1F2846FF1F0448FF1F0C46FF1FCB
:103240001048FF1F5C48FF1F0444FF1F3044FF1F4E
:103250002447FF1F3447FF1F4447FF1F1C48FF1F21
:103260004046FF1F6448FF1F5C44FF1F6C48FF1F60
:103270007448FF1F7C48FF1F8448FF1F5447FF1FEF
:103280000047FF1F6447FF1F7447FF1F8C48FF1F45
:103290002848FF1F8447FF1F9447FF1F5846FF1F02
:1032A0009448FF1F7C43FF1F3448FF1F9045FF1FBA
:1032B00010B440B24109DFF8A422012310F01F042A
:1032C000A34042F8213010BC70472DE9F8430400B8
:1032D0000D0064B2002C08D0022C2CD018D3042C82
:1032E0004FD03BD3052C5FD071E0DFF8740200684B
:1032F00050F48060DFF8681208604FF44071662077
:1033000000F0CCF94FF44071672000F0C7F95EE09F
:10331000DFF84C02006850F40060DFF844120860E7
:103320004FF44071812000F0B9F94FF440718020D2
:1033300000F0B4F94BE0DFF82802006850F4805048
:10334000DFF81C1208604FF44071632000F0A6F90A
:103350004FF44071622000F0A1F938E0DFF800027C
:10336000006850F40050DFF8F81108604FF4407125
:10337000502000F093F94FF44071512000F08EF985
:1033800025E0DFF8E001006850F48060DFF8D41138
:1033900008604FF44071992000F080F94FF44071BB
:1033A000982000F07BF912E0DFF8B801006850F4D3
:1033B0000060DFF8B01108604FF44071892000F020
:1033C0006DF94FF44071882000F068F9FFE764B2AE
:1033D000DFF8940150F82400C07810F0F30064B2D4
:1033E000DFF8841151F82410C87064B2DFF8780156
:1033F00050F8240064B2DFF8701151F82410897875
:10340000817064B2002C02D064B2012C07D1DFF8C5
:103410005C0100684FF47A714843814606E0DFF8AA
:10342000500100684FF47A71484381462801B9FB86
:10343000F0F00600B6B2B6F5005F02D341F6FF70B9
:103440000600B9FBF5F0B6B2B0EB06100700BFB24C
:10345000202F03D3DC21474800F085F964B24248AD
:1034600050F82400007810F0E0008046B6B2300A30
:1034700010F01F0050EA080064B23B4951F82410D4
:10348000087064B2384850F82400467064B2364878
:1034900050F82400807A10F0E000804664B2324890
:1034A00050F8240017F01F0151EA0801817264B23C
:1034B0002D4850F82400007C50F0880064B22A495E
:1034C00051F82410087464B2274850F82400C078DA
:1034D00050F02C0064B2244951F82410C870BDE8A3
:1034E000F18340B2204A52F8202012799206F8D592
:1034F00040B21D4A52F8202092F907200A70704706
:1035000040B2194A52F8202012791206F8D540B27A
:10351000154A52F82020D1717047010049B2124873
:1035200050F82100807D002801D0012000E000201B
:10353000704710B5040064B20B4850F82400C078FE
:1035400050F0200064B2084951F82410C87064B2E9
:1035500060002D3040B2FFF7ABFE10BD00E100E08F
:1035600034800440288004406450FF1F8853FF1FAC
:103570009053FF1F6C45FF1F10B504004FF40070FF
:1035800094FBF0F101FB1041002903D01E210B48F0
:1035900000F0E9F80A48046010BD38B504000D00D9
:1035A000074800680749884203D03021034800F0EB
:1035B000DAF864B2034840F8245031BDEC45FF1FEF
:1035C00008ED00E00000FF1F0EB400B582B003A9B3
:1035D000009100AB02460121034878440A30FCF711
:1035E0001BFF06BC5DF810FBCD10000001B58B077A
:1035F00018D1121F21D351F8043BA3F1013C2CEA4E
:10360000030C1CF0803C04BF40F8043BF1E79CFA3B
:103610008CFCBCFA8CF1C1F118018B40CB4040F816
:10362000043B13E0042A09D311F8013B521E00F8B1
:10363000013B5BB18B07F7D1DBE7121D5AB111F8E3
:10364000013B521E00F8013B03B1F8D111001CBF31
:10365000002200F03BF901BD820707D010F8012BD2
:1036600011F8013BBAB19A42F6D014E002680B6837
:103670009A42A2F1013301BF934313F0803F50F807
:10368000042F51F8043FF3D010F8012B11F8013B3F
:103690000AB19A42F8D0D01A7047000010B4294AF3
:1036A00012684FF40073C0B24409A3401A43254B7B
:1036B0001A60C0B24211244B53F82220012310F0AB
:1036C0001F04A340C2F8A030C0B210F01F02C0B265
:1036D00043111D4C54F8233043F8221010BC70479E
:1036E00010B4184A12684FF40073C0B24409A340E2
:1036F0001A43144B1A60C0B24211134B53F82220E4
:10370000012310F01F04A340C2F8A03031F4E0619F
:10371000C0B210F01F02C0B243110B4C54F823305A
:1037200053F8222012F4E0621143C0B210F01F02DD
:10373000C0B24311044C54F8233043F8221010BC9B
:1037400070470000388004405050FF1FBFF34F8F78
:103750005548006810F4E060544908435249086035
:10376000BFF34F8FFEE738B504000D00002000F0D6
:10377000DDF82A0021004E48FFF726FF002000F068
:10378000F2F84C4800684FF47A7101FB00F1032015
:1037900000F004F9EDE738B504000D00210049B24E
:1037A0000320FFF7ADFE200032BD10B50024042039
:1037B00000F054F9042000F087F9002855D10020CA
:1037C00000F0B4F8042000F07FF9012801D10120B5
:1037D0000400002000F0C7F83748FFF7F5FE354831
:1037E00000684FF4FA7101FB00F1032000F0D6F8F5
:1037F000E4B2012CE6D1042000F066F90028E1D102
:10380000042000F061F900280BD1002000F0ABF893
:1038100028480068642101FB00F1032000F0BEF895
:10382000EEE7042000F050F901280BD1002000F051
:103830009AF820480068322101FB00F1032000F0D3
:10384000ADF8EEE71D48FFF7BFFE01F05FFC194839
:103850000068642101FB00F1032000F09FF80020C4
:1038600001F071FCFFF772FFACE710BD10B5144812
:103870000468012000F05AF8012000F074F8E4B266
:103880000F20104900FB0412E4B221000E48FFF79C
:103890009BFE084800684FF47A7101FB00F1032099
:1038A00000F07CF8E8E700000CED00E00400FA0509
:1038B0000045FF1F9053FF1FD846FF1FCC45FF1F39
:1038C00004ED00E0EC48FF1F4043FF1F401810F0DC
:1038D000030308D0C91A1FD3DB0748BF00F8012D26
:1038E00028BF20F8022D130030B4144615461039B5
:1038F00028BF20E93C00FAD8490728BF20E90C007E
:1039000048BF40F8042D890028BF20F8022D48BF89
:1039100000F8012D30BC7047C91818BF00F8012D00
:10392000CB0728BF00F8012D7047000010B5040038
:1039300064B2042C07DA0122012164B21648205C2B
:1039400000F0E0F80EE0042004002000441E40B225
:10395000002807D00122012164B20F48205C00F04A
:10396000D1F8F2E710BD10B5040064B2042C05DAFA
:1039700064B20948205C00F01CF90CE0042004004B
:103980002000441E40B2002805D064B20248205CEA
:1039900000F00FF9F4E710BD7C50FF1F38B50400AC
:1039A0000D00002D03D145212848FFF7DCFE2848F3
:1039B000006850F400002649086026480068800826
:1039C00080002449086064B2234810EB041080682A
:1039D0004008400064B2204911EB0411886064B2D1
:1039E00020011D496A1E425064B21B4810EB0410AE
:1039F000C06850F0010064B2174911EB0411C860AF
:103A000064B2154810EB041080684008400064B2AE
:103A1000114911EB0411886064B20F4810EB0410D7
:103A20000121816064B20C4810EB0410C068C0072B
:103A3000F8D564B2084810EB0410C06850F00100DB
:103A400064B2054911EB0411C86031BDDC44FF1FAD
:103A50003C800440007003400071034010B5040036
:103A600064B2082C0DDA0022002164B22348205CE5
:103A700000F048F8032164B22048205CFFF730FED4
:103A800014E0082004002000441E40B200280DD09D
:103A90000022002164B21948205C00F033F80321B1
:103AA00064B21648205CFFF71BFEECE710BD10B5B2
:103AB000040064B21148205C00F097F8002801D19E
:103AC000002000E0012010BD10B50400200040B22D
:103AD000FFF7EDFF00280FD1094800680A2101FB1C
:103AE00000F10320FFF75AFF200040B2FFF7DFFF8D
:103AF000002801D1002000E0012010BD8050FF1FF0
:103B00009053FF1F70B504000D0016004FF4807134
:103B10002000C0B2FFF7C2FD6DB2002D11D1E4B29A
:103B20006011404951F82000E4B261113D4A52F859
:103B300021104969012214F01F039A409143416109
:103B400036E0E4B26011374951F82000E4B2611167
:103B5000344A52F821104969012214F01F039A4097
:103B600011434161F6B2002E11D1E4B260112D492A
:103B700051F820000068012114F01F029140884391
:103B8000E4B26111274A52F82110086010E0E4B253
:103B90006011244951F820000068012114F01F022F
:103BA00091400843E4B261111E4A52F821100860A6
:103BB00070BD10B50400E4B260111A4951F820003C
:103BC000406914F01F01C840C00703D47B21164888
:103BD000FFF7C9FDE4B26011124951F8200001213C
:103BE00014F01F029140C16010BD10B50400E4B292
:103BF00060110C4951F82000406914F01F01C840C1
:103C0000C00703D58C210848FFF7ADFDE4B2601171
:103C1000044951F82000006914F01F01C84010F059
:103C2000010010BDF44FFF1F4845FF1F40B2DFF8F1
:103C3000BC1331F8201040B20128C0F27D8140B29F
:103C4000112880F27981DFF8A8230023137089B24C
:103C5000312904D2DFF898230023537082E089B21F
:103C6000612904D2DFF88823012353707AE089B2F6
:103C7000912904D2DFF878230223537072E089B2CD
:103C8000C12904D2DFF86823032353706AE089B2A4
:103C9000F12904D2DFF858230423537062E040F284
:103CA000211289B2914204D2DFF8442305235370D4
:103CB00058E040F2511289B2914204D2DFF8302329
:103CC000062353704EE040F2811289B2914204D231
:103CD000DFF81C230723537044E040F2B11289B28D
:103CE000914204D2DFF80823082353703AE040F2EF
:103CF000E11289B2914204D2DFF8F4220923537011
:103D000030E040F2112289B2914204D2DFF8E02281
:103D10000A23537026E040F2412289B2914203D235
:103D2000B34A0B2353701DE040F2712289B29142D5
:103D300003D2AF4A0C23537014E040F2A12289B29F
:103D4000914203D2AA4A0D2353700BE040F2D122D4
:103D500089B2914203D2A64A0E23537002E0A44ACC
:103D60000F23537089B21A2903D2A14A00239370FA
:103D70006DE089B2332903D29D4A0123937066E036
:103D800089B24C2903D29A4A022393705FE089B228
:103D9000652903D2964A0323937058E089B27E299D
:103DA00003D2934A0423937051E089B2972903D236
:103DB0008F4A052393704AE089B2B02903D28C4A16
:103DC0000623937043E089B2C92903D2884A0723A6
:103DD00093703CE089B2E22903D2854A08239370AC
:103DE00035E089B2FB2903D2814A092393702EE082
:103DF0004FF48A7289B2914203D27D4A0A239370AA
:103E000025E040F22D1289B2914203D2784A0B2369
:103E100093701CE089B2B1F5A37F03D2744A0C23DE
:103E2000937014E040F25F1289B2914203D2704A5B
:103E30000D2393700BE04FF4BC7289B2914203D210
:103E40006B4A0E23937002E0694A0F23937089B284
:103E50001A2903D2664A0023D3706DE089B2332950
:103E600003D2634A0123D37066E089B24C2903D29E
:103E70005F4A0223D3705FE089B2652903D25C4AAE
:103E80000323D37058E089B27E2903D2584A042311
:103E9000D37051E089B2972903D2554A0523D370D4
:103EA0004AE089B2B02903D2514A0623D37043E0D5
:103EB00089B2C92903D24E4A0723D3703CE089B2A4
:103EC000E22903D24A4A0823D37035E089B2FB299C
:103ED00003D2474A0923D3702EE04FF48A7289B285
:103EE000914203D2424A0A23D37025E040F22D12B8
:103EF00089B2914203D23E4A0B23D3701CE089B2AF
:103F0000B1F5A37F03D23A4A0C23D37014E040F2F8
:103F10005F1289B2914203D2354A0D23D3700BE070
:103F20004FF4BC7289B2914203D2314A0E23D3704E
:103F300002E02F4A0F23D370704710B50400200011
:103F400040B2FFF773FE2B48007810F0FD002949BE
:103F500008702848007850F010002649087026485C
:103F6000B821017025480078C006FBD423480078AA
:103F7000C0F38100C0B20228F8D11D48C3781C48A4
:103F800082781B4841781A48007801F06BF964B2D6
:103F9000164810EB8400807810F01F001849087054
:103FA00064B2124810EB8400C07810F01F0050F08B
:103FB000400014490870114800788006FBD50F486E
:103FC00000784006FBD50C48007810F03F000A4905
:103FD00008700A480078C0F38100C0B20328F8D105
:103FE00064B2024830F82400C0B210BD0850FF1F70
:103FF0004C50FF1F0140064000400640064006406E
:1040000004400640054006405048F02101704F48EA
:1040100000780006FBD54D4800787121084201D098
:10402000002000E00120704780B54948006850F446
:104030000020474908604748006850F4002045497F
:104040000860424800780006FBD54048F021017026
:10405000414800680A2101FB00F10320FEF72CFC17
:1040600001BD10B582B00400A4B24FF4006000FBA3
:1040700004F000903948092101709DF80200384988
:1040800008709DF801003749087037489DF8001006
:104090000170FFF7B9FF002801D100200CE0A4B2A5
:1040A000002C08D17FF0010240F20C41200080B2C8
:1040B00000F003F800E0012016BD7CB504000D00FF
:1040C0001600A4B24FF40060ADB200FB04500190A2
:1040D000ADB2042095FBF0F101FB1051002903D093
:1040E000EA212248FEF7CDFA40F60100ADB2854242
:1040F00003D3EC211D48FEF7C4FA9DF806001849C9
:1041000008709DF805001749087017489DF80410BD
:10411000017000969DF80300154908709DF8020093
:10412000144908709DF801001349087013489DF860
:1041300000100170094806210170FFF765FF002893
:1041400001D1002000E0012076BD00000000024007
:1041500004F0014008F001409053FF1F07000240A7
:104160000600024005000240040002402445FF1FF3
:104170000B0002400A000240090002400800024011
:10418000F0B4114E366834000F4E366856F47F0690
:104190000D4F3E600E0616F0706656EA0076170563
:1041A00017F470073E431F0417F470273E43074F70
:1041B0003E6000263500EDB29D4201D26D1CFAE74B
:1041C000014E3460F0BC704700F001404480044070
:1041D00080B500F095F800F02AF800F00AF8FFF733
:1041E000E4FA012201210420FFF78CFCFEF7EFFC2A
:1041F000FEE780B50320FFF7A0FE33490860324890
:1042000000684FF47A714843304908602F480068CD
:104210002F490968C1F30361491CB0FBF1F02D4936
:1042200008604FF416510320FFF74FF801BD2DE948
:10423000F8432948294988420DD000208046B8F526
:10424000826F08D22448254951F8281040F82810D8
:1042500018F10108F3E72048FFF78EF9204807001E
:104260002048060020480400A01B80464046B0F1CC
:104270000108002804D030783870761C7F1CF5E7E0
:104280001A4881461A480500B5EB090080464046A9
:10429000B0F10108002805D0002089F8000019F1CC
:1042A0000109F4E713481449144A531A984643463F
:1042B000B3F10108002B04D00B780370491C401C9B
:1042C000F5E7BDE8F18300008C53FF1F8853FF1F03
:1042D000448004409053FF1F0000FF1F0000FF1F99
:1042E000EC48FF1F4423FF1F442BFF1FB452FF1F46
:1042F0003254FF1FEC50FF1F0840FF1FD041FF1F2B
:1043000080B500F008F80C4800884FF6FE710840B0
:104310000949088001BDEFF3118072B607494CF2DC
:1043200020520A8005494DF628120A80C0B20028A2
:1043300000D162B670470000002005400E20054005
:104340000A2A2A2A2A64656661756C745F69737229
:1043500020656E7465726564206F6E207665637487
:104360006F722025642A2A2A2A2A0A0A25732049DC
:104370006E74657272757074000000002D2D2D2D05
:104380002D2D2D2D2D2D2D2D2D2D2D2DCAB1BCE4F6
:10439000C8D5C6DAD0C5CFA22D2D2D2D2D2D2D2D72
:1043A0002D2D2D2D2D2D2D2D0A0000002D2D2D2DE7
:1043B0002D2D2D2D2D2D2D2D2D2D2D2DB9A6C2CAF6
:1043C000D7B4BFF62D2D2D2D2D2D2D2D2D2D2D2D91
:1043D0002D2D2D2D0A0000002D2D2D2D2D2D2D2DB7
:1043E0002D2D2D2D2D2D2D2DB6A8CEBBD0C5CFA278
:1043F0002D2D2D2D2D2D2D2D2D2D2D2D2D2D2D2DED
:104400000A0000002D2D2D2D2D2D2D2D2D2D2D2D86
:104410002D2D2D2DCDA8D0C5D0C5CFA22D2D2D2D24
:104420002D2D2D2D2D2D2D2D2D2D2D2D0A00000066
:10443000D0C5CFA2C0E0B1F0A3BAB5E7CEC4D0CE0C
:10444000CABDA3A8BBECBACFA3A9CDA8D0C5B7BDA0
:10445000CABDA3A8CDA8D0C5A3A90A002D2D2D2D76
:104460002D2D2D2D2D2D2D2D2D2D2D2DCEBBD6C30E
:10447000D0C5CFA22D2D2D2D2D2D2D2D2D2D2D2D1A
:104480002D2D2D2D0A00000010B5084979441C314E
:10449000074C7C441A34A14206D0081D0A68511802
:1044A00088470146A142F8D110BD00BF08010000B5
:1044B0001C01000031A3BAB9A6C2CABCECB2E2200A
:1044C0002032A3BAB6A8CEBBC9EAC7EB202033A3DB
:1044D000BACDA8D0C5C9EAC7EB000000443A5CB029
:1044E000E6B1BE5C546573745C436869705C73725A
:1044F000635C4D4B36305F5049542E630000000022
:10450000417373657274696F6E206661696C65646E
:1045100020696E202573206174206C696E652025EA
:10452000640A0000443A5CB0E6B1BE5C5465737442
:104530005C436869705C7372635C4D4B36305F66D8
:104540006C6173682E630000443A5CB0E6B1BE5CF7
:10455000546573745C436869705C7372635C4D4B43
:1045600036305F6770696F2E63000000443A5CB0BC
:10457000E6B1BE5C546573745C436869705C7372C9
:10458000635C4D4B36305F756172742E63000000C2
:1045900032302564C4EA202564D4C2202564C8D5FD
:1045A000202564CAB1202564B7D6202564C3EB203A
:1045B0000A0000002FCFFFFF80010000B452FF1F50
:1045C00074000000885CFF1F000000000ABDF8D0E6
:1045D000D0BDE2CBF8B2D9D7F7A3ACC7EBD6D8D0D1
:1045E000C2CBA2C8EBB9CCBCFE000000443A5CB020
:1045F000E6B1BE5C546573745C436869705C737249
:10460000635C6D6973632E63000000002564B6C8A7
:10461000202564B7D6202564C3EB202564282E31DD
:10462000C3EB29200A0000002564682025646D2062
:10463000256473202564282E317329200A00000088
:10464000B5E7CEC4C4DAC8DDA3BAA3A8BBECBACF21
:10465000A3A925730A000000B9C0BCC6CEF3B2EE10
:10466000A3BA256C64282E316D29200A00000000B1
:1046700000F009F8002801D0FFF706FF0020FEF740
:10468000A6FA00F002F80120704700F001B800001F
:104690000746FDF745FD384600F002F8FBE700004D
:1046A00080B5C046C046024A11001820ABBEFBE7E9
:1046B0002600020038B504460D46284600F006F8EC
:1046C000A84218BF0024204632BD00000149FFF770
:1046D00062B800BFAC50FF1F0ABDF8C8EBCBC0D119
:1046E000ADBBB7B5C8B4FDA3A1000000C7EBCAE4D9
:1046F000C8EBB9A6C4DCB4FAC2EBA3BA0A00000046
:10470000CBD9B6C8A3BA256C64282E316D2F732976
:10471000200A000028B6AB38C7F8CAB1BCE429A308
:10472000BA000000D3C3BBA7B5D8D6B7A3BA2564D7
:104730000A000000B7A2D0C5B5D8D6B7A3BA256C79
:10474000640A0000B5E7CEC4B3A4B6C8A3BA256C0A
:10475000640A0000B8DFB6C8A3BA256C646D200AED
:1047600000000000B7BDCFF2A3BA256C64B6C82024
:104770000A000000CEC0D0C7CAFDA3BA25646D20D0
:104780000A000000B6A8CEBBB2BBB3C9B9A6200AC6
:1047900000000000BEABB6C8CFB5CAFDA3BA256401
:1047A000200A0000B9A6C2CA31A3BA2564200A00B3
:1047B000B9A6C2CA32A3BA2564200A00B9A6C2CAE1
:1047C00033A3BA2564200A00B9A6C2CA34A3BA2505
:1047D00064200A00B9A6C2CA35A3BA2564200A001B
:1047E000B9A6C2CA36A3BA2564200A00B6A8CEBBB1
:1047F000CAB1BFCC0000000028555443CAB1BCE484
:1048000029A3BA00B4F3B5D8BEADB6C8A3BA0000A8
:10481000B4F3B5D8CEB3B6C8A3BA0000435243B17F
:10482000EAD6BEA3BA300A00B6A8CEBBB3C9B9A6B1
:10483000200A0000B5B1C7B0CAB1BCE40000000056
:10484000C046C046C046C046FFF712FF24474C5A38
:104850004B00000024445758580000002454585876
:104860005800000024474E5058000000B6ABBEADC3
:1048700000000000CEF7BEAD00000000C4CFCEB3F4
:1048800000000000B1B1CEB300000000D7B4CCAC42
:10489000A3BA000024474E54580000000000000056
:1048A0000000000000000000000000000000000008
:1048B0000000000000000000FFFFFFFFFFFFFFFF00
:1048C00000000000000000000000000000000000E8
:1048D00000000000000000000000000000000000D8
:0C48E00000000000FFFFFFFFFFFF0000D2
:040000051FFF484150
:00000001FF
